:040000000C946710E5
:100004000C94634A0C9400000C9400000C940000BF
:100014000C9400000C9400000C9400000C9400005C
:100024000C9400000C9400000C9400000C9400004C
:100034000C9458510C9400000C9400000C94000093
:100044000C9400000C9400000C9400000C9400002C
:100054000C9400000C9400000C9400000C9400001C
:100064000C9400000C9400000C9400000C9400000C
:100074000C9400000C9400000C9400000C940000FC
:100084000C9400000C9400000C9400000C940000EC
:100094000C9400000C9400000C9400000C940000DC
:1000A4000C9400000C9400000C9400000C940000CC
:1000B4000C9400000C9400000C94794D0C94314F76
:1000C4000C9400000C9400000C9400000C940000AC
:1000D4000C9400000C9400000C9400000C9400009C
:1000E4000C9400000C9400000C9400000C9400008C
:1000F4000C9400000C9400000C9400000C9400007C
:100104000C9400000C9400000C9400000C9400006B
:100114000C9400000C9400000C94BE500C9400004D
:100124000C9400000C9400000C9400000C9400004B
:100134000C9400000C9400000C9400000C9400003B
:100144000C9400000C9400000C9400000C9400002B
:100154000C9400000C9400000C9400000C9400001B
:100164000C9400000C9400000C9400000C9400000B
:100174000C9400000C9400000C9400000C940000FB
:100184000C9400000C9400000C9400000C940000EB
:100194000C9400000C9400000C9400000C94CC4CC3
:1001A4000C94CD4C0C9400000C9400000C940000B2
:1001B4000C9400000C9400000C9400000C940000BB
:1001C4000C9400000C9400000C9400000C940000AB
:1001D4000C9400000C9400000C94754F0C940000D7
:1001E4000C94CD4F0C9400000C9400000C9400006F
:1001F4000C9400000C9400000000000000000000BB
:100204000000000000000000000000006578746534
:10021400726E616C0000706F7765722D75700000EE
:1002240000000000000000000000000000000000CA
:1002340000000000000000000000000000006272E6
:100244006F776E2D6F7574007761746368646F6780
:10025400000000000000000000000000000000009A
:10026400000000000000000000000000000000008A
:10027400000000000000000000000000000000007A
:10028400000000000000000000000000000000006A
:10029400000000000000000050444900000000007D
:1002A400000000000000000000000000000000004A
:1002B400000000000000000000000000000000003A
:1002C400000000000000000000000000000000002A
:1002D400000000000000000000000000000000001A
:1002E400000000000000000000000000000000000A
:1002F40000000000000000000000000000000000FA
:1003040000000000000000000000000000000000E9
:1003140000000000000000000000000000000000D9
:1003240000000000000000000000000000000000C9
:100334000000000000000000736F6674776172654E
:10034400000020222A2B2C5B3D5D7C7F00000004F2
:10035400000200018000400020001000080004009A
:10036400020000000080004000200010000800404F
:100374000020001000080004000244535441434B81
:10038400454E440048535441434B454E44000000FD
:100394000000CDCC4C3D52756767656420506F7288
:1003A4007461626C6520436F6D7075746572732C33
:1003B400206C6C6330342E30312E30302E006E6F52
:1003C40020626F6F746C6F61646572000100554E3A
:1003D4004B4E4F574E00000000000000000000008C
:1003E40000004F4B0000000000000000000000006F
:1003F4000000000000004255464645525F4F5645F6
:1004040052464C4F5700000000004152424954529A
:100414004154494F4E5F4C4F535400000000425525
:10042400535F4552524F520000000000000000008C
:1004340000004E41434B5F524543454956454400F5
:100444000000000000005245535F4641494C08003B
:100454000100E803000000000000000000000000AC
:10046400000000000000000065787465726E616C25
:100474000000706F7765722D757000000000000039
:100484000000000000000000000000000000000068
:100494000000000000000000000062726F776E2D03
:1004A4006F7574007761746368646F67000000009F
:1004B4000000000000000000000000000000000038
:1004C4000000000000000000000000000000000028
:1004D4000000000000000000000000000000000018
:1004E4000000000000000000000000000000000008
:1004F400000000005044490000000000000000001B
:1005040000000000000000000000000000000000E7
:1005140000000000000000000000000000000000D7
:1005240000000000000000000000000000000000C7
:1005340000000000000000000000000000000000B7
:1005440000000000000000000000000000000000A7
:100554000000000000000000000000000000000097
:100564000000000000000000000000000000000087
:100574000000000000000000000000000000000077
:100584000000000000000000000000000000000067
:1005940000000000736F6674776172650000203D8F
:1005A4003D3D3D3D3D3D3D3D3D3D3D3D3D3D3D3D77
:1005B4003D3D3D3D3D3D3D3D3D3D3D3D3D3D3D3D67
:1005C4003D3D3D3D3D3D3D3D3D3D3D3D3D3D3D3D57
:1005D4003D3D3D3D3D200D0A004932432064697391
:1005E40061626C65642064756520696E76616C690E
:1005F400642044415441202F20434C4F434B20500E
:100604004F5254432E494E203D20307825325820F5
:10061400200D0A002020202020504F525443302027
:100624002D2049324320646174613A2020256920D9
:100634000D0A002020202020504F52544331202DF9
:100644002049324320636C6F636B3A202569200D87
:100654000A00696E206261636B7570206D6F64655A
:10066400207633302046696C74657265643A2030B4
:10067400782530345820205241573A20307825309C
:100684003258253032582053687574646F776E2061
:1006940076616C75653A203078253034580D0A003F
:1006A400202020202A2A2A2A2A2A202053687574E6
:1006B40074696E672073797374656D20646F776EE7
:1006C400204E6F772121202A2A2A2A2A2A200D0A3D
:1006D400001B5B33316D004932435F777269746587
:1006E4005265673A206572726F72202569202573FE
:1006F40020616363657373696E6720616464726506
:10070400737320307825303258200D0A001B5B307B
:100714006D004932435F726561645265673A2065D2
:1007240072726F722025692025732061636365737B
:1007340073696E6720616464726573732030782511
:10074400303258200D0A000D0A202A207265736584
:10075400742066726F6D206261636B7570206D6FBB
:100764006465202A200D0A00257300253135732085
:1007740025313573202531357320253135732025F6
:1007840031357320253135732025313573202531DA
:1007940035732025313573202531357320253135C6
:1007A40073202531357320253135730063616C69FD
:1007B40062726174696F6E20706172616D657465D7
:1007C4007273206572617365642E202052657374A0
:1007D400617274696E672070726F636573736F7290
:1007E400202E2E2E200D0A2000637270730D0A0035
:1007F40020417661696C61626C6520636F6D6D6127
:100804006E64733A200D0A002020207665727369A5
:100814006F6E2C2072657365742C20626F6F746C1C
:100824006F61642C2073686F772C206D6F64652C66
:10083400207065656B2C20706F6B652C206565706E
:10084400726F6D2C206D75782C0D0A005B25642564
:1008540064256425642D25642564256425645D2050
:10086400000D0A20457870616E646572205B25690D
:100874005D20494E2052656720307825303258205B
:100884000062617474657279207374617475732085
:100894005B25695D20002041206C6F772020422079
:1008A4006C6F77200D0A20002041204F4B202042FE
:1008B400206C6F77200D0A20002041206C6F772078
:1008C40042204F4B200D0A002041204F4B20204254
:1008D400204F4B200D0A002041206C6F77202863A5
:1008E40068617267696E67292042206C6F772028DF
:1008F4006E6F74206368617267696E6729200D0AE0
:10090400002041204F4B2020286368617267696E84
:1009140067292042206C6F7720286E6F74206368EB
:10092400617267696E6729200D0A002041206C6F8F
:100934007720286368617267696E67292042204FB7
:100944004B2020286E6F74206368617267696E673C
:1009540029200D0A002041204F4B20202863686184
:100964007267696E67292042204F4B2020286E6FE2
:1009740074206368617267696E6729200D0A00201C
:1009840041206C6F7720286E6F74206368617267F2
:10099400696E67292042206C6F7720286368617232
:1009A40067696E6729200D0A002041204F4B2020E3
:1009B400286E6F74206368617267696E67292042CC
:1009C400206C6F7720286368617267696E672920DD
:1009D4000D0A002041206C6F7720286E6F7420630D
:1009E40068617267696E67292042204F4B20202876
:1009F4006368617267696E6729200D0A00204120CF
:100A04004F4B2020286E6F74206368617267696E93
:100A140067292042204F4B20286368617267696E02
:100A24006729200D0A002041206C6F772028636815
:100A3400617267696E67292042206C6F7720286392
:100A440068617267696E6729200D0A002041204F92
:100A54004B2020286368617267696E6729204220F1
:100A64006C6F7720286368617267696E6729200D4F
:100A74000A002041206C6F772028636861726769DF
:100A84006E67292042204F4B2020286368617267DB
:100A9400696E6729200D0A002041204F4B20202831
:100AA4006368617267696E67292042204F4B20207A
:100AB400286368617267696E6729200D0A002075D2
:100AC4006E6B6E6F776E200D0A00202020636F6EB0
:100AD40074726F6C6C6572205B25755D2063686150
:100AE40072676572205B3078253032585D20766FEE
:100AF4006C746167652073657420746F205B2532A4
:100B04002E3266765D205B307825303258253032BF
:100B1400585D200D0A006368617267657220412088
:100B2400686173206265656E20656E61626C6564E0
:100B3400206F6E20636F6E74726F6C6C657220250B
:100B440069200D0A0063686172676572204220683B
:100B54006173206265656E20656E61626C656420F8
:100B64006F6E20636F6E74726F6C6C657220256992
:100B7400200D0A00636F6E74726F6C6C65722025B1
:100B8400692063686172676572204120656E6162E5
:100B94006C6564200D0A00636F6E74726F6C6C6513
:100BA400722025692063686172676572204220653E
:100BB4006E61626C656420200D0A0063686172676F
:100BC4006572204120686173206265656E206469E6
:100BD4007361626C6564206F6E20636F6E74726FF4
:100BE4006C6C6572202569200D0A00636861726768
:100BF4006572204220686173206265656E206469B5
:100C04007361626C6564206F6E20636F6E74726FC3
:100C14006C6C6572202569200D0A000D0A20426162
:100C240074746572792025752069732066756C6CFF
:100C34007920636861726765642E206368617267F6
:100C44006572204120616E64204220646973616290
:100C54006C6564200D0A00436F6E74726F6C6C6572
:100C640072202025752073746174757320256920A2
:100C74006E6F7468696E6720746F20646F206E6F86
:100C840077200D0A00636861726765722063616C86
:100C940069627261746520766F6C746167653A206D
:100CA40025322E326676200D0A001B5B33326D002E
:100CB40020202A2A20436F6E74726F6C6C65722038
:100CC400232569205468726573686F6C6420412021
:100CD4007472696767656420617420766F6C7461EF
:100CE40067652025322E326676202A2A0D0A0020D6
:100CF4002A2A20436F6E74726F6C6C6572202325F0
:100D040069205468726573686F6C64204220747241
:100D1400696767656420617420766F6C74616765C8
:100D24002025322E326676202A2A0D0A00202A2A0D
:100D34002A20446F6E652020416C6C2063686172C8
:100D4400676572732068617665206265656E2063ED
:100D5400616C69627261746564202A2A2A200D0A12
:100D64000D0A00436F6E74726F6C6C6572202325DC
:100D74006920006E6F7420466F756E642C20636169
:100D84006C6962726174696F6E20736B69707065EF
:100D940064006261747465727920696E7374616C45
:100DA4006C65642C2063616C6962726174696F6E36
:100DB40020736B6970706564002020202062617468
:100DC4007465727920413A2025322E326676200DE0
:100DD4000A00202020206261747465727920423AEE
:100DE4002025322E326676200D0A00466F756E6419
:100DF40000436F6E74726F6C6C6572202569206697
:100E04006F756E64200D0A0D0A004E6F7420466FD4
:100E1400756E6400436F6E74726F6C6C657220251E
:100E240069206E6F7420666F756E64200D0A0D0A5A
:100E340000202A2A2A20496E76616C696420636F37
:100E44006E74726F6C6C6572202569200D0A0062E5
:100E54006174746572794C65643A206572726F725C
:100E64002025692025732072656164696E672045B9
:100E74007870616E64657220307825303258206F46
:100E84007574707574207265676973746572200D6A
:100E94000A0076657273696F6E0076657200466942
:100EA400726D77617265207265766973696F6E2001
:100EB40020205B25735D200D0A00426F6F746C6FF8
:100EC40061646572207265766973696F6E205B2553
:100ED400735D200D0A00726573657400726573009A
:100EE40052455345543A2052657374617274696E65
:100EF400672070726F636573736F72202E2E2E20BD
:100F04000D0A2000626F6F746C6F616400626F6F12
:100F140000456E746572696E6720626F6F746C6FE2
:100F2400616465722E2052656D656D626572207410
:100F34006F20636C6F7365207265616C7465726D8C
:100F440020706F7274200D0A200073686F7700732D
:100F5400686F0064657669636573001B5B376D00B9
:100F6400436F6E74726F6C6C65722023256920095F
:100F7400002020466F756E6420200020204E6F7480
:100F840020466F756E64202000202020206261744A
:100F94007465727920413A2009001B5B33366D0079
:100FA40020204F4B20202866756C6C792063686183
:100FB400726765642920090043686172676572205D
:100FC400566F6C746167653A2025322E326620763E
:100FD400200D0A0020204F4B20202863686172678F
:100FE400696E67292009001B5B33336D0020204C98
:100FF4004F572020286E6F74206368617267696E92
:10100400672920090020204C4F572020286368615D
:101014007267696E672920090020202020626174AC
:101024007465727920423A200900206E6F74206939
:101034006E7374616C6C65642000696F0069002ACA
:101044002A2A2A2A2A2A2A2A2A2A2A2A2A2A2A2AFC
:101054002A2A2A2A2A2A2A2A2A2A2A2A2A2A2A2AEC
:101064002A2A2A2A2A2A2A2A2A2A2A2A2A2A2A2ADC
:101074002A2A2A2A2A2A2A2A2A2A2A2A2A2A2A2ACC
:101084002A2A2A2A2A2A0D0A002053797374656DA4
:1010940020492F4F2070696E20737461747573201A
:1010A40009090909204D697363200D0A00202020D5
:1010B40070735F6F6E3A202020202020202020258E
:1010C4006920092043757272656E743A20537973EE
:1010D40074656D204F4E2F25312E3166204120201E
:1010E40053797374656D204F46462F25312E316632
:1010F40020410D0A0020202064635F676F6F643A0B
:101104002020202020202025692009205265736595
:1011140074207374617475733A205B25695D2025AE
:1011240073200D0A002020205F3132765F656E3A0D
:10113400202020202020202569200920563330201B
:101144006164633A2025322E32662056202072656F
:10115400616C3A2025322E326620562030782530B4
:10116400325825303258200D0A0020202062617444
:10117400745F6F6E3A202020202020202569200DE6
:101184000A0020202073696C656E63653A20202074
:10119400202020202569200D0A002020204265659A
:1011A4007065722073746174653A20202569200D7E
:1011B4000A002020206F7065726174696E674D6F3C
:1011C40064653A2025752000205B53797374656D3E
:1011D400204F4646204578743238204F4E204143F4
:1011E400204F4E5D20465020626C696E6B207965FD
:1011F4006C6C6F772F677265656E00205B53797333
:1012040074656D204F4646204578743238204F4629
:1012140046204143204F4E5D20465020626C696E4B
:101224006B20677265656E00205B53797374656D1E
:10123400204F4646204578743238204F4E20414393
:10124400204F46465D20465020626C696E6B2079C3
:10125400656C6C6F7700205B53797374656D204FF8
:101264004E204578743238204F4E204143204F4E53
:101274005D20465020736F6C696420677265656EEB
:1012840000205B53797374656D204F4E204578744C
:101294003238204F4646204143204F4E5D20465071
:1012A40020736F6C696420677265656E00205B5300
:1012B400797374656D204F4E204578743238204F11
:1012C4004E204143204F46465D20465020736F6CAC
:1012D40069642079656C6C6F770020756E6B6E6F36
:1012E400776E207374617465205B25695D00726597
:1012F400760020202A2A2A2A206861726477617283
:1013040065207265766973696F6E20696E666F20F9
:101314002A2A2A2A200D0A0050726F636573736F9C
:10132400723A2041746D656C2000584D4547413137
:101334003238413120726576202563200D0A005829
:101344004D4547413132384231207265762025635C
:10135400200D0A00436F6E74726F6C6C65722023EB
:101364002575200D0A000920636861726765722083
:10137400412052657649643A202530327525303251
:10138400752530327525303275200D0A0009206329
:1013940068617267657220422052657649643A201A
:1013A4002530327525303275253032752530327549
:1013B400200D0A0D0A00696E76616C696420636F02
:1013C4006D6D616E6420737472696E6720666F72EE
:1013D4006D6174200D0A002053796E7461783A208F
:1013E4000D0A002020202073686F772064657669D9
:1013F400636573200D0A002020202073686F772016
:10140400696F200D0A006D6F6465006D6F64006480
:1014140065627567006175746F00610073696C655E
:101424006E7400766572626F736500766572626FC2
:101434007365206D6F646520656E61626C65642000
:101444000D0A0067756900257320002563200025B7
:10145400322E3266762025322E3266762025322EC2
:101464003266762025322E3266762025322E32667A
:10147400762025322E3266762025322E326676206C
:1014840025322E32667620000D007261770050728C
:101494006F64756374696F6E206D6F64653A20467E
:1014A400414C5345200D0A00646562756720202075
:1014B4002020206D6F64653A2054525545200D0A52
:1014C4000050726F64756374696F6E206D6F64652C
:1014D4003A2054525545200D0A0064656275672010
:1014E40020202020206D6F64653A2046414C5345EE
:1014F400200D0A00766572626F7365202020206DCE
:101504006F64653A2073696C656E74200D0A007609
:101514006572626F7365202020206D6F64653A20C8
:10152400636861747479200D0A00202020206D6F97
:101534006465205B206465627567207C2061757436
:101544006F207C2073696C656E74207C20766572D4
:10155400626F7365207C20677569207C20726177D7
:10156400205D0D0A007065656B007065650052654D
:101574006164696E672041646472657373203078B6
:10158400253032582061742052656769737465721E
:1015940020307825303258206461746120697320CA
:1015A400307825303258205B256425642564256411
:1015B4002D25642564256425645D0D0A0041646459
:1015C4007265737320307825303258206E6F742022
:1015D400726573706F6E64696E672E204572726FE8
:1015E4007220636F6465202575202573200D0A0021
:1015F400202020207065656B203C372D62697420A3
:10160400616464726573733E203C5B30785D72651F
:101614006769737465723E200D0A00706F6B650014
:10162400706F6B0070726576696F75732072656791
:10163400697374657220646174613A20307825306E
:101644003258205B25642564256425642D25642592
:1016540064256425645D0D0A0057524954452041B0
:101664006464726573732030782530325820617455
:10167400205265676973746572203078253032585A
:101684002077697468206461746120307825303271
:1016940058205B25642564256425642D2564256410
:1016A400256425645D0D0A0043757272656E7420AD
:1016B400526567697374657220646174612030785F
:1016C40025303258205B25642564256425642D2546
:1016D400642564256425645D0D0A00706F6B6520C4
:1016E4002573202573202573200D0A002020202037
:1016F400706F6B65203C372D62697420616464727D
:101704006573733E203C5B30785D72656769737402
:1017140065723E203C5B2B7C2D5D5B30785D6461A3
:1017240074613E0D0A00656570726F6D00656570C9
:10173400007265616400616C6C001B5B39376D007D
:10174400202020202030302030312030322030330F
:1017540020303420303520303620303720303820C7
:101764003039203041203042203043203044203072
:10177400452030460D0A00256320200020454550B1
:10178400524F4D20616464722030782530325820E5
:1017940076616C7565206973203078253032582065
:1017A4000D0A0077726974650070726576696F75E9
:1017B4007320454550524F4D20646174613A203086
:1017C4007825303258205B25642564256425642DF2
:1017D40025642564256425645D0D0A0020777269FB
:1017E40074696E6720454550524F4D202E2E2E0DA4
:1017F4000A0020202020656570726F6D2077726961
:101804007465205B616C6C5D207C203C5B30785D92
:10181400616464726573733E203C5B2B7C2D5D5B5D
:1018240030785D646174613E200D0A002020202020
:10183400656570726F6D207265616420203C5B3059
:10184400785D616464726573733E20200D0A006DD7
:10185400757800436F6E74726F6C6C6572206F756F
:1018640074206F662072616E67652E2056616C6904
:10187400642072616E676520697320312D34200DF8
:101884000A00436F6E74726F6C6C6572202575204C
:10189400636F6E6E656374656420746F206D757814
:1018A400206368616E6E656C202575200D0A006DDD
:1018B400757820686173206265656E206469736160
:1018C400626C656420666F7220636F6E74726F6CF5
:1018D4006C6572202569200D0A002020206D757822
:1018E400203C636F6E74726F6C6C65723E203C6357
:1018F40068616E6E656C3E200D0A00202020202059
:101904002045583A206D757820322033202D2D2023
:1019140073656C65637473206368616E6E656C20B7
:1019240033206F6E20636F6E74726F6C6C657220FF
:101934002332200D0A0020202020202045583A2060
:101944006D757820312030202D2D206469736162FB
:101954006C6573206D7578206F6E20636F6E747282
:101964006F6C6C6572202331200D0A006C65640075
:10197400726564006F66660052454420616E64209F
:10198400475245454E206C656427732073686F7514
:101994006C64206265206F6E20616C6C20636F6ED6
:1019A40074726F6C6C657273200D0A00524544208A
:1019B4006C656427732073686F756C64206265209E
:1019C4006F6E20616C6C20636F6E74726F6C6C65EB
:1019D4007273200D0A00202020206C656420746539
:1019E4007374207C206F6666200D0A00766F6C7419
:1019F40061676500620025660063757272656E74C6
:101A04000063006770696F0068006A0071006765B1
:101A140074006368617267657272656700736574E8
:101A240074696E672063686172676520637572729A
:101A3400656E7420746F2025312E326641200D0AA4
:101A440000426174746572792020232569207072C4
:101A54006573656E74200D0A0020636F6E74726F77
:101A64006C6C6572202569206261747465727920DA
:101A7400737461747573203078253032580D0A0000
:101A8400426174746572792020232569206E6F7415
:101A94002070726573656E74200D0A00202A2A2A4C
:101AA4002A2A2A2A2A2A2A2A2A2A2A2A2A2A2A2A92
:101AB4002A2A2A2A2A2A2A2A2A2A2A2A2A2A2A2A82
:101AC4002A2A2A2A2A2A2A2A2A2A2A2A2A2A2A2A72
:101AD4002A2A2A200D0A002020202020202020202D
:101AE40070726F64756374696F6E206D6F646520C6
:101AF400656E61626C6564200D0A00202020202040
:101B04002020202020202020202020202044656226
:101B14007567206D6F646520656E61626C65642015
:101B24000D0A00202A2A2A2A2A2A2A2A2A2A2A2A82
:101B34002A2A2A2A2A2A2A2A2A2A2A2A2A2A2A2A01
:101B44002A2A2A2A2A2A2A2A2A2A2A2A2A2A2A2AF1
:101B54002A2A200D0A005245534554205354415417
:101B64005553205B3078253032585D202573200D85
:101B74000A006F7065726174696E67204D6F6465E9
:101B84002020202020205B25695D200D0A00466965
:101B9400726D776172652020207265766973696F52
:101BA4006E205B25735D200D0A00475549204D6F5B
:101BB40064652020202020202020202020205B2558
:101BC400695D200D0A00202A2A2A2A2A2A2A2A2A7A
:101BD4002A2A2A2A2A2A2A2A2A2A2A2A2A2A2A2A61
:101BE4002A2A2A2A2A2A2A2A2A2A2A2A2A2A2A2A51
:101BF4002A2A2A2A2A200D0A0D0A00737461727493
:101C04002D7570206F6E2062617474657279206D19
:101C14006F646520307825303258200D0A00696ED3
:101C240076616C696420706F7765722D75702073AE
:101C34007461746520307825303258200D0A000014
:101C440045787465726E616C207265736574206486
:101C5400657465637465642030785B253032585D43
:101C6400200D0A0D0A00506F776572206F6E207286
:101C74006573657420646574656374656420307885
:101C84005B253032585D200D0A0D0A0042726F77D1
:101C94006E2D6F7574207265736574206465746548
:101CA400637465642030785B253032585D200D0AFA
:101CB4000D0A00576174636820646F67207265734E
:101CC40065742064657465637465642030785B258D
:101CD4003032585D200D0A0D0A00504449207265C7
:101CE4007365742064657465637465642030785B1F
:101CF400253032585D200D0A0D0A00536F66747743
:101D040061726520726573657420646574656374BB
:101D140065642030785B253032585D200D0A0D0A49
:101D24000000010001000400EBFE904D53444F53AA
:101D3400352E30004E4F204E414D45202020204668
:101D440041543332202020004E4F204E414D452037
:101D54002020204641542020202020002D4E414E9A
:101D6400000001002D4E414E00494E4600000A007D
:101D7400000000000000000000000000000000005F
:101D8400000000000000000000000000000000004F
:101D9400090000207E0300000900A033880300002E
:101DA4000400003C9203000004006629960300002E
:101DB4001E005F2F9A0300000900BF2FB803000024
:101DC4000D00D62FC20300000100E52FD003000050
:101DD4008000EB2FD20300000100E82F5204000022
:101DE40001008E30540400000200643356040000E5
:101DF40006000028EF0D00000A0006280E0E000061
:101E040008001028960E0000040018289E0E0000FA
:101E140006001C28DA0E000004002228E00E000050
:101E240009002628080F000004002F28110F0000C5
:101E3400050033284E0F000004003828530F00001B
:101E440008003C28570F000002004428940D0000AD
:101E5400030046283E1000000200492841100000FB
:101E640004004B28F212000002004F28A00E0000CC
:101E7400050051280A140000040056280F1400001D
:101E840006005A281314000002006028940D000074
:101E94000500622819140000020067281E140000BF
:101EA4000700692820140000020070286D07000054
:101EB400080072282714000002007A28F412000097
:101EC40004007C2847140000020080281714000036
:101ED400040082288E14000002008628A00E000050
:101EE400050088286915000004008D286E1500007F
:101EF400050091281F1600000400962824160000EF
:101F040007009A282A1700000400A12831170000AE
:101F14000500A528351700000200AA28A00E00001D
:101F24000400AC283A1700000200B0281E14000078
:101F34000500B228351700000200B728A00E0000E3
:101F44000400B9288E1400000500BD2835170000D0
:101F54000200C228A00E00000600C428A717000033
:101F64000200CA28510F00000400CC2853180000B6
:101F74000400D028701900000400D428741900004B
:101F84000600D828F91100000300DE289B0E00008B
:101F94000400E128781900000400E5283A1700003D
:101FA4000400E9283A1700000400ED283A1700005D
:101FB4000400F128741900000400F5283A17000001
:101FC4000600F928F91100000300FF289B0E000009
:101FD40004000229DC0E000008000629F0190000A4
:101FE40002000E29F4120000020010291E14000041
:101FF40002001229F819000004001429DC0E000064
:1020040008001829FD19000002002029051A000003
:1020140004002229DC0E000005002629071A00000E
:1020240002002B291714000002002D291E140000A1
:1020340002002F29F819000002003129051A0000B6
:1020440002003329940D0000020035290D1400000C
:10205400020037297A190000020039290C1A0000FD
:1020640002003B290E1A000002003D296C150000F5
:1020740002003F29A00E000002004129101A0000AE
:1020840004004329121A00000B004729161A000005
:1020940002005229051A0000020054291E140000EF
:1020A40002005629F819000001008633261D00009D
:1020B40001008B33281D000001009433661D0000CD
:1020C40001009833721D00000000F894EFEFEDBF9B
:1020D400EBE3EEBFC0E0D8E2EE27E8BFE9BFEABF1A
:1020E400EBBF0E949F4AF894EE27F091CC01F86070
:1020F400F093CC01F8EDF4BFE093A200E093400428
:1021040080E090E2A0E0B0E2ED930197E9F789BFA7
:10211400E4E9FDE1D0E0DBBF87919791009781F07E
:10212400A791B79107901790C791D791BF01DBB7DB
:10213400F001CBBF07900D920197E1F7FB01EBCFC4
:1021440089BF8BBFE0E0E0B9E1B9E2B9E3B9E4B932
:10215400E5B9E6B9E7B9E8B9E9B9EAB9EBB9ECB96F
:10216400EDB9EEB9EFB92E2E3E2EE8EE4E2EE3E099
:102174005E2EE0E06E2E7E2E8E2E9E2EAE2EBE2E77
:10218400CE2EDE2EC0E0D8E20C94AE480E94F64972
:102194000E948F4A0E94754A0E94194BA091920096
:1021A400AC3411F00C94DC100E94514B0E94864C0C
:1021B4000E948D4CA0919200AD3411F00C94E21069
:1021C4000E94244D0E943E50A0E0B8E00E941E4DA3
:1021D400A0E4B8E00E94214DA0E0B9E00E941E4DA9
:1021E400A0E4B9E00E94214DA0E4BAE00E94214D90
:1021F400A0E0BBE00E941E4DA0E4BBE00E94214D84
:10220400A0EAB8E00E94504FA0EBB8E00E94504F03
:10221400A0EAB9E00E94504FA0EBB9E00E94504FF1
:10222400A0EABAE00E94504FA0EBBAE00E94504FDF
:10223400A0EBBBE00E94504F0E9481510E948C5140
:102244000E9497510E9426510E942C510E943251A3
:102254000E9438510E94404F0E94BA50E0E0E0933F
:102264000003E09320030E940E510E941A517894B7
:1022740008950E94FE5E9D014E815F8100E010E0A2
:10228400DA010E947259E017F10711F40C94591104
:102294003F932F932F5F3F4FF8010F5F1F4FE40FC2
:1022A400F51FE081AF91BF910E94B360E9CFD901DE
:1022B4002F5F3F4FE0E00E94B3600E94055F2896C5
:1022C40008951A930A9311E001E010E0103210F01F
:1022D4000C948511A12FBB270E94AB60AE2FE12F78
:1022E400F0E0E15AF04DE081EA1711F40C94831107
:1022F400EFE5FFE2FA93EA93A0E0B0E00E943B111D
:1023040002C01F5FE3CF10E0103110F00C94A51150
:10231400E12FF0E0B096DF010E94AB60AE2FE12F19
:10232400F0E0E154F04DE081EA1711F40C94A311AC
:10233400EFEBFFE2FA93EA93A0E2B0E00E943B11D4
:1023440002C01F5FE1CFEFECFFE2FA93EA93A9E347
:10235400B2E00E94FE16DF010E94515910E01630CF
:1023640010F00C94D011E12FF0E0B996DF010E9437
:10237400AB60AE2FE12FF0E0E153F04DE081EA17BE
:1023840011F40C94CE11EFECFFE2FA93EA93A9E274
:10239400B0E00E943B1102C01F5FE1CFA2E4B0E0B5
:1023A4000E94AB60EF3F11F00C94DB11E1E00E945E
:1023B400B360A4E4B0E00E94AB60EF3F11F00C9472
:1023C400E611E0E00E94B360A5E4B0E00E94AB60D7
:1023D400EF3F11F00C94F111E1E00E94B360A8E525
:1023E400B0E00E94AB60EF3F11F00C94FC11E2E00E
:1023F4000E94B360A9E5B0E00E94AB60EF3F11F02A
:102404000C940712EEE00E94B360AAE5B0E00E94CB
:10241400AB60EF3F11F00C941212E4E00E94B36041
:1024240001E0E02FE066F0E03197DF010E94AB604D
:10243400EF3F11F00C943612E02FE066F0E0319794
:10244400DF01E0ED0E94B360E02FE066F0E0379634
:10245400DF01E5E00E94B360E02FF0E0E55BFF4FB1
:10246400DF01E1E00E94B360E02FE066F0E0339624
:10247400DF010E94AB60EF3F11F00C945912E02F82
:10248400E066F0E03396DF01E0ED0E94B360E02FF8
:10249400E066F0E03B96DF01E5E00E94B360E02FE8
:1024A400F0E0E55BFF4FDF01E1E00E94B3600F5F06
:1024B400053010F00C945F12B4CFEFE7FFE2FA930B
:1024C400EA93E0E0F0E0FA93EA93A0E2B0E00E943D
:1024D400E958EFE9FFE2FA93EA93E0E2F0E0FA93D5
:1024E400EA93A0E1B0E00E94E958EFEAFFE2FA9330
:1024F400EA93E0E3F0E0FA93EA93A0E1B0E00E940B
:10250400E958A091AF2FAF3F11F00C949412E0E082
:10251400E093AF2FEFEAFFE2FA93EA93A6EDBFE26E
:102524000E942C59A2E4B0E00E94AB60A6EEBFE288
:10253400EE23E1E009F4E0E0EC93A4E4B0E00E94CF
:10254400AB60A5EEBFE2EE23E1E009F4E0E0EC933A
:10255400A5E4B0E00E94AB60A4EEBFE2EE23E1E0AC
:1025640009F4E0E0EC9301E0A0E30A9FF001E459F0
:10257400F44D0F01E02FE066F0E03197DF010E9497
:10258400AB60D001EC93A0E30A9FF001E359F44D52
:102594000F01E02FE066F0E03796DF010E94AB60A8
:1025A400D001EC93A0E30A9FF001E259F44D0F012E
:1025B400E02FE066F0E03396DF010E94AB60D001CB
:1025C400EC93A0E30A9FF001E159F44D0F01E02FD1
:1025D400E066F0E03B96DF010E94AB60D001EC9333
:1025E400A0E30A9FF001E059F44DFF93EF930A9F93
:1025F400F001E459F44DA081BB2788279927E3E033
:102604000E94605F7F936F93FF93EF93A0E30A9F11
:10261400F001E359F44DE081F0E0AF91BF918F9167
:102624009F910E94965F0E94235F0E945661DF0182
:10263400CB01E0E0F0E068EC72E40E942D62AF911F
:10264400BF910E946860A0E30A9FF001EC58F44D2A
:10265400FF93EF930A9FF001E259F44DA081BB2749
:1026640088279927E3E00E94605F7F936F93FF932D
:10267400EF93A0E30A9FF001E159F44DE081F0E00B
:10268400AF91BF918F919F910E94965F0E94235FAB
:102694000E945661DF01CB01E0E0F0E068EC72E4F7
:1026A4000E942D62AF91BF910E946860A0E30A9FCF
:1026B400F001E55AF44D0F01E02FF0E0E55BFF4F28
:1026C400DF010E94AB60D001EE23E1E009F4E0E019
:1026D400EC93A0E30A9FF001E05AF44DA0E0A0833C
:1026E400A0E30A9FF001EF59F44DA0E0A083A0E31A
:1026F4000A9FF001EE59F44DA1E0A083A0E30A9FE4
:10270400F001ED59F44DA1E0A0830F5F053010F006
:102714000C948D1329CFA8E5B0E00E94AB602E2E57
:1027240009911991089508951A930A9300E010E00D
:102734000E940525A8950E949718D8010F5F1F4F86
:10274400159711F00C94A81301E010E0A6E2A09FE5
:10275400F001A19FF00DEF55F64DE081E03011F04E
:102764000C94B51362C0A6E2A09FF001A19FF00DE6
:10277400EB55F64DE081EA93A091E82F0E94AB1649
:10278400E0E6EA93E0E0EA93A2E00E947C15A4E884
:10279400B9E20E94DC601FBEA6E2A09FF001A19FE7
:1027A400F00DEB55F64DE081EA93A091E72F0E94DE
:1027B400AB16A0918629A13011F00C94E4130E9469
:1027C400F91B34C0A6E2A09FF001A19FF00DEB55C8
:1027D400F64DE081EA93A091E82F0E94AB16E6E65D
:1027E400EA93E0E0EA93A2E00E947C15A4E8B9E24F
:1027F4000E94DC601FBEA6E2A09FF001A19FF00D25
:10280400EB55F64DE081EA93A091E72F0E94AB16B9
:10281400A0918629A13011F00C9413140E94F91B85
:1028240005C0A4E6B0E00E94916284CF0991199199
:1028340008950E94005F10E020E63CE0E0E1E093B0
:102844004006E8EBE0935006E0935106E2EAF5E037
:1028540060E070E00E948F6080E00E94231824965C
:10286400EDEDF5E060E070E00E948F60E0914806D5
:10287400FF27662777270E948F6084E00E94231831
:102884002896E8E1F6E060E070E00E948F60E09155
:102894004806E1700E94A05F0E94A05FFF276627A0
:1028A40077270E948F6084E00E9423182896E7E32C
:1028B400F6E060E070E00E948F60E0914806F0E08E
:1028C400F595E795E170F0700E94A55F0E94A05F06
:1028D400FF27662777270E948F6084E00E942318D1
:1028E4002896E2EAF5E060E070E00E948F6080E004
:1028F4000E9423182496A8950E949718E091E92F26
:10290400E03011F40C94D814E6E5F6E060E070E0F1
:102914000E948F60E091512FF091522F6627772704
:102924000E948F60E0912502FF27662777270E9487
:102934008F60E0912402FF27662777270E948F602B
:10294400F901662777270E948F6080E10E9423188F
:102954006496A091512FB091522F2A173B0710F47F
:102964000C94B914103011F00C94B91401C01EC0A9
:1029740011E0E091A006E160E093A006E091A406D6
:10298400E170E093A406A4EFB1E00E949162E091AB
:10299400A006EE7FE093A006E4EAF6E060E070E0D3
:1029A4000E948F6080E00E9423182496E0EDF7E0F7
:1029B400AE16BF0610F40C940215E0914806E03000
:1029C40011F40C94EB14E1E0E03011F40C94EB14EA
:1029D40001C011C0E0914806F0E0F595E795309705
:1029E40011F40C94FB14E1E0E03011F40C94FB14AA
:1029F40001C001C001C002C00E94074BAA24BB242D
:102A04007ACF0E94075F24960895E0E1E0934006A0
:102A1400E0914806E03011F40C941615E1E0E03042
:102A240011F40C94161501C011C0E0914806F0E0B1
:102A3400F595E795309711F40C942615E1E0E03014
:102A440011F40C94261501C001C001C002C00E94FB
:102A54003E51E9E9EA93E1E0EA93A7E30E947C1599
:102A6400AFE8B9E20E94DC601FBEE0914806E030A6
:102A740011F40C944315E1E0E03011F40C94431587
:102A840001C012C0E0914806F0E0F595E795309753
:102A940011F40C945315E1E0E03011F40C94531547
:102AA40001C002C0E1E001C0E0E0E093EA2FE09160
:102AB4004806E03011F40C946515E1E0E03011F4BF
:102AC4000C94651501C012C0E0914806F0E0F5953C
:102AD400E795309711F40C947515E1E0E03011F4AA
:102AE4000C94751501C002C0E1E001C0E0E0E09380
:102AF4008F2908956897E0E0E883E9830E94005FE6
:102B04000A2F3C8D2D8D10E03C83FE013596008309
:102B1400E3E5FFE2FA93EA932A93FE013796FA93E8
:102B2400EA93E2E0EA93E0E0F0E0FA93EA93A0E0CB
:102B34000E94C05BA1E0B0E00E949162E0E0EF83FC
:102B4400E0915E2FE887A885A13011F40C94041657
:102B5400E5EDF6E060E070E00E948F6080E00E94A6
:102B640023182496EBEDF6E060E070E00E948F609D
:102B7400EC85FF27662777270E948F60E889A4E108
:102B8400EA9FF001E551F04D662777270E948F6098
:102B9400E22FFF27662777270E948F608CE00E9430
:102BA40023186096E1E1F7E060E070E00E948F6036
:102BB40080E00E942318249610E0143010F00C9446
:102BC4000416E3E5FFE2FA93EA932A93FE013796AB
:102BD400FA93EA93E2E0EA93E0E0F0E0FA93EA930E
:102BE400A0E00E94C05BA1E0B0E00E949162E0918D
:102BF4005E2FE887A885A13011F00C94021602C05C
:102C04001F5FDBCFFE013696DE0151968BE00E94FA
:102C1400DC60FE0171968BE01FB6F8940E94075F9A
:102C24006E9608956897E0E0E883E9830E94005F68
:102C34000A2F3C8D10E00D83EF83E3E5FFE2FA9366
:102C4400EA933A93FE013896FA93EA93E1E0EA9321
:102C5400FE013A96FA93EA93A1E00E94C05BA1E0D8
:102C6400B0E00E949162EC81EF83E0915E2FE887EF
:102C7400A885A13011F40C949B16E5EDF6E060E014
:102C840070E00E948F6080E00E9423182496E6E1A1
:102C9400F7E060E070E00E948F60EC85FF27662714
:102CA40077270E948F60E889A4E1EA9FF001E5514B
:102CB400F04D662777270E948F60E32FFF27662752
:102CC40077270E948F608CE00E9423186096E1E1D0
:102CD400F7E060E070E00E948F6080E00E942318BB
:102CE400249610E0143010F00C949B16E3E5FFE2F8
:102CF400FA93EA933A93FE013896FA93EA93E1E061
:102D0400EA93FE013A96FA93EA93A1E00E94C05B2B
:102D1400A1E0B0E00E949162EC81EF83E0915E2F2C
:102D2400E887A885A13011F00C94991602C01F5FA2
:102D3400D9CFFE013696DE0151968BE00E94DC600D
:102D4400FE0171968BE01FB6F8940E94075F6D96A2
:102D540008951A930A931A2F0A810A931A930E94C8
:102D64007C15A4E8B9E20E94DC601FBEE0918629CC
:102D7400F0E019810881239608951A9310E0E091F8
:102D8400A806E0740E94A05F0E94A05F1E2FE0913D
:102D94008B30E11711F40C94E416103011F00C94FC
:102DA400DF16EBE4F7E060E070E00E948F6080E003
:102DB4000E94231824960E94074BE0E0E0938C3095
:102DC400E0938D30E0918E30E03011F00C94FA16DF
:102DD400E091E92FE11711F40C94F2161093E92F06
:102DE400E0E0E0938C30E0938D30E1E0E0938E30CE
:102DF40010938B3019910895BA93AA930E94005F9F
:102E04000C811D812BE030E0A8E7B9E2A20FB31FCB
:102E1400E0E0EC93AD81AA2312F00C941717EC8137
:102E2400FD810E94285FEC83FD83F90131979F01A6
:102E3400E858F64DBF01AC81BD81EAE0F0E00E94A4
:102E44002D60E05DDB01EC93AC81BD81EAE0F0E054
:102E54000E94F85FEC83FD83EC81FD81309711F4CF
:102E64000C943517E2CF112312F00C944017F9019A
:102E740031979F01E858F64DADE2A083F901E85877
:102E8400F64D0E94075F269608950E94005F9D01FB
:102E940000E010E0F801E20FF31FE081E03011F4EC
:102EA4000C947217F801E20FF31FA081A13410F4FF
:102EB4000C946517F801E20FF31FA081AB3510F0F5
:102EC4000C94651701C009C0D801A20FB31FF80103
:102ED400E20FF31FE081E05EEC930F5F1F4FDACF48
:102EE4000E94075F24960895BA93AA930E94005FF4
:102EF4000C811D81D8010E9472599F01F9013197FB
:102F0400E00FF11FA0810E94A859E03011F40C9445
:102F14009317F90131979F01E00FF11FA0E0A083FF
:102F2400EDCFD801EC91E03011F40C94A117AC91E1
:102F34000E94A859E03011F40C94A11701C005C0F7
:102F44000F5F1F4F21503040ECCFEC81FD81FA938D
:102F5400EA931A930A93D90111960E940D590E947B
:102F6400075F269608951A931A2F0E94C2591E2F9E
:102F7400A12F0E949259E03011F40C94C717E12F4D
:102F8400F0E0E156F0403A9603C0E12FF0E0F0970C
:102F940019910895BA93AA930E94FE5E01E010E08D
:102FA40020E030E040E050E0AE81BF81AC91A0333E
:102FB40011F00C94E617AE81BF811196AC91A8373D
:102FC40011F00C94E61701C032C0EE81FF81FA9330
:102FD400EA93E885F9853296FA93EA93AA85BB8544
:102FE4000E947259DF010E940D59AE81BF810E9477
:102FF40072593197AF01552312F40C941818FA0141
:10300400AE81BF81AE0FBF1FAC910E94B517DF0127
:10301400F8010E94AA5F2E0F3F1FA0E1A09FF001BC
:10302400A19FF00D8F0141505040E5CF05C0AE8106
:10303400BF810E94CA599F01F9010E94055F289629
:103044000895FF92F82EEF97EF97EF97EF97229757
:103054001A930A93E091E52FE03011F00C9458187C
:10306400DE01A450BF4F0E941F5F8D01FE01329606
:10307400FA93EA93DE01AE5FBE4F0E941F5F0E9487
:1030840063600E948F60D8010E948E55ECE6F7E0E1
:1030940060E070E00E948F60FE0136966627772715
:1030A4000E948F6084E00E94BC5528961981088193
:1030B400DF5FFF900895FF92F82EEF97EF97EF9759
:1030C400EF9722971A930A93E091E52FE03011F0DD
:1030D4000C949218DE01A450BF4F0E941F5F8D0113
:1030E400FE013296FA93EA93DE01AE5FBE4F0E9470
:1030F4001F5F0E9463600E948F60D8010E948E55FA
:10310400ECE6F7E060E070E00E948F60FE01369626
:10311400662777270E948F6084E00E94BC5528961A
:1031240019810881DF5FFF9008950E94005F10E01D
:1031340020E030E0E091462CE03011F40C94261AA3
:1031440020E030E02030E2E03E0714F00C94B318A5
:10315400AFE9B0E3A20FB31FE0E0EC932F5F3F4F62
:10316400F1CF20E030E0E0914B2EF0914C2E2E1761
:103174003F0710F00C94D218F901E156FF4C0F01EF
:10318400A7E4BCE2A20FB31FEC91D001EC93A7E437
:10319400BCE2A20FB31FE0E0EC932F5F3F4FE3CFFD
:1031A400E0E0E0934B2EE0934C2EE093472EE09327
:1031B400482EE093462CAFE9B0E30E947617AFE9BE
:1031C400B0E30E944717E0E0E0938F30E093A13230
:1031D400E093B132E093C132E093D132E093E13233
:1031E400E093F132E0930133E0931133E093213320
:1031F400E0933133E0934133E0935133EFE9F0E36B
:10320400FA93EA93EFE6F7E060E070E00E948F60E3
:10321400EFE8F0E3662777270E948F60E1EAF2E3A4
:10322400662777270E948F60E1EBF2E36627772712
:103234000E948F60E1ECF2E3662777270E948F609B
:10324400E1EDF2E3662777270E948F60E1EEF2E377
:10325400662777270E948F60E1EFF2E366277727DE
:103264000E948F60E1E0F3E3662777270E948F6076
:10327400E1E1F3E3662777270E948F60E1E2F3E35D
:10328400662777270E948F60E1E3F3E366277727B9
:103294000E948F60E1E4F3E3662777270E948F6042
:1032A400E1E5F3E3662777270E948F6084E30E94B9
:1032B400B958EA96E0939F32F093A0320E94D9263F
:1032C4000E9413270E9439270E9464270E94F42E2B
:1032D4000E9437330E9475340E9447370E94553A42
:1032E4000E942F3B0E94613C0E94F53EE0919F307A
:1032F400F0E0E336A0E0FA0711F00C94E019A0E640
:10330400B0E0EFEF0E94B360A1E6B0E00E94B360CA
:10331400A2E6B0E00E94B360A3E6B0E00E94B3600E
:10332400A4E6B0E00E94B360A5E6B0E00E94B360FA
:10333400A6E6B0E00E94B360A7E6B0E00E94B360E6
:10334400A8E6B0E00E94B360A9E6B0E00E94B360D2
:10335400AAE6B0E00E94B360ABE6B0E00E94B360BE
:10336400ACE6B0E00E94B360ADE6B0E00E94B360AA
:10337400AEE6B0E00E94B360AFE6B0E00E94B36096
:10338400ACE4B0E0E1E00E94B360ADE4B0E00E94E0
:10339400B360AEE4B0E00E94B360AFE4B0E00E947A
:1033A400B360E0EBF7E060E070E00E948F6080E0E3
:1033B4000E94BC5524960E94074B06C0EF33A0E040
:1033C400FA0711F00C94F219EDEEF7E060E070E00A
:1033D4000E948F6080E00E94BC55249635C034C0A2
:1033E400E836A0E0FA0711F00C94021A1091E52FC8
:1033F400E0E0E093E52F0E94F81B1093E52F24C032
:10340400A091A030AE3211F00C94261AEAEDF5E04A
:1034140060E070E00E948F6080E00E94BC552496BA
:10342400E4EFF7E060E070E00E948F6080E00E94CB
:10343400BC552496ECE0F8E060E070E00E948F60F8
:1034440080E00E94BC5524960E94075F249608954C
:103454001A931A2FE0E5F8E060E070E00E948F60B4
:10346400B0E0E7E00E943C5FE17011F40C943C1A78
:10347400E1E001C0E0E00E94905F0E948F60A12F14
:10348400B0E0E6E00E943C5FE17011F40C944C1A49
:10349400E1E001C0E0E00E94905F0E948F60A12FF4
:1034A400B0E0E5E00E943C5FE17011F40C945C1A1A
:1034B400E1E001C0E0E00E94905F0E948F60E12F94
:1034C400F0E00E947E5FE17011F40C946B1AE1E06D
:1034D40001C0E0E00E94905F0E948F60E12FF0E065
:1034E4000E94805FE17011F40C947A1AE1E001C04B
:1034F400E0E00E94905F0E948F60E12FF0E00E9464
:10350400825FE17011F40C94891AE1E001C0E0E0FB
:103514000E94905F0E948F60E12FF0E0F595E7959F
:10352400E17011F40C94981AE1E001C0E0E00E940B
:10353400905F0E948F6010FF02C0E1E001C0E0E0F4
:103544000E94905F0E948F6080E20E945D18A496A2
:10355400199108950E94005F1A2F0C812D813E81DC
:10356400E5E6F8E060E070E00E948F60F90166270C
:1035740077270E948F60E02FFF27662777270E9416
:103584008F6088E00E945D182C96A02F0E942A1A52
:10359400E5E8F8E060E070E00E948F60E12FFF272B
:1035A400662777270E948F6084E00E945D18289622
:1035B400E12FF0E0309711F00C94EB1AEAE9F8E00F
:1035C40060E070E00E948F6080E00E9423182496DF
:1035D40009C1E130A0E0FA0711F00C94FC1AECEAFE
:1035E400F8E060E070E00E948F6080E00E942318A1
:1035F4002496F8C0E230A0E0FA0711F00C940D1BF9
:10360400EDEBF8E060E070E00E948F6080E00E94E3
:1036140023182496E7C0E330A0E0FA0711F00C94D5
:103624001E1BECECF8E060E070E00E948F6080E02C
:103634000E9423182496D6C0E031A0E0FA0711F0C6
:103644000C942F1BEBEDF8E060E070E00E948F60BB
:1036540080E00E9423182496C5C0E131A0E0FA0757
:1036640011F00C94401BE5E0F9E060E070E00E948A
:103674008F6080E00E9423182496B4C0E231A0E059
:10368400FA0711F00C94511BEFE2F9E060E070E0EE
:103694000E948F6080E00E9423182496A3C0E33127
:1036A400A0E0FA0711F00C94621BE9E5F9E060E090
:1036B40070E00E948F6080E00E942318249692C0DC
:1036C400E032A0E0FA0711F00C94731BE3E8F9E090
:1036D40060E070E00E948F6080E00E9423182496CE
:1036E40081C0E132A0E0FA0711F00C94841BEDEAEA
:1036F400F9E060E070E00E948F6080E00E9423188F
:10370400249670C0E232A0E0FA0711F00C94951BE5
:10371400E7EDF9E060E070E00E948F6080E00E94D5
:10372400231824965FC0E332A0E0FA0711F00C944A
:10373400A61BE1E0FAE060E070E00E948F6080E0A8
:103744000E94231824964EC0E033A0E0FA0711F03B
:103754000C94B71BEAE2FAE060E070E00E948F602C
:1037640080E00E94231824963DC0E133A0E0FA07CC
:1037740011F00C94C81BE0E5FAE060E070E00E94F0
:103784008F6080E00E94231824962CC0E233A0E0CE
:10379400FA0711F00C94D91BE6E7FAE060E070E058
:1037A4000E948F6080E00E94231824961BC0E3339C
:1037B400A0E0FA0711F00C94EA1BECE9FAE060E0EF
:1037C40070E00E948F6080E00E94231824960AC053
:1037D400E2ECFAE060E070E00E948F6080E00E941A
:1037E400231824960E94075F279608950895239727
:1037F400E0E0E883E983EA830E94005F00E010E0F0
:1038040030E031E0A6E23A9FF001EF55F64DE08159
:10381400E03011F40C94601D3A9FF001EB55F64D25
:10382400E081EA93A091E82F0E94AB16A0E5B0E0F6
:103834000E94AB60EF3F11F00C94501CE0E6EA9359
:10384400E4E0EA93A0EC0E947C151FBEE0E6EA9354
:10385400E5E0EA93A0E70E947C151FBEE6E6EA9342
:10386400E4E0EA93A0EC0E947C151FBEE6E6EA932E
:10387400E5E0EA93A0E70E947C151FBEA0E5B0E056
:10388400E1E00E94B360A1E5B0E0E0EC0E94B36027
:10389400A2E5B0E0E0E70E94B36030C0E0E6EA935E
:1038A400E4E0EA93A1E5B0E00E94AB60AE2F0E9491
:1038B4007C151FBEE0E6EA93E5E0EA93A2E5B0E0FA
:1038C4000E94AB60AE2F0E947C151FBEE6E6EA9311
:1038D400E4E0EA93A1E5B0E00E94AB60AE2F0E9461
:1038E4007C151FBEE6E6EA93E5E0EA93A2E5B0E0C4
:1038F4000E94AB60AE2F0E947C151FBEE0E6EA93E7
:10390400E1E0EA93AEE30E947C151FBEE0E6EA9391
:10391400E0E0EA93A4E00E947C151FBEE6E6EA9389
:10392400E1E0EA93AEE30E947C151FBEE6E6EA936B
:10393400E0E0EA93A4E00E947C151FBEE0919A297E
:10394400E03011F40C94C11CE0E6EA93E0916E2A95
:10395400EA93AAE5B0E00E94AB60AE2F0E947C150A
:103964001FBEE6E6EA93E0916E2AEA93AAE5B0E088
:103974000E94AB60AE2F0E947C151FBE1AC0E0E609
:10398400EA93E0916E2AEA93A9E5B0E00E94AB6065
:10399400AE2F0E947C151FBEE6E6EA93E0916E2AE4
:1039A400EA93A9E5B0E00E94AB60AE2F0E947C15BB
:1039B4001FBEE0E6EA93EAE0EA93AFEF0E947C15CB
:1039C4001FBEE6E6EA93EAE0EA93AFEF0E947C15B5
:1039D4001FBEA5E0B0E00E949162E2E0ED83E3E562
:1039E400FFE2FA93EA93E0E6EA93FE013896FA934B
:1039F400EA93E1E0EA93FE013A96FA93EA93A1E0AE
:103A04000E94C05B0E2F1127A1E0B0E00E949162DA
:103A1400E1E0F0E0E017F10711F40C94121D06C088
:103A2400EC81E17011F40C94181DD3CFE0E6EA9315
:103A3400E2E0EA93A1E00E947C151FBEA5E0B0E09D
:103A44000E949162E2E0ED83E3E5FFE2FA93EA93F8
:103A5400E6E6EA93FE013896FA93EA93E1E0EA9304
:103A6400FE013A96FA93EA93A1E00E94C05B0E2FFE
:103A74001127A1E0B0E00E949162E1E0F0E0E017DC
:103A8400F10711F40C94471D06C0EC81E17011F4A8
:103A94000C944D1DD3CFE6E6EA93E2E0EA93A1E06D
:103AA4000E947C151FBEA6E23A9FF001EB55F64D2D
:103AB400E081EA93A091E72F0E94AB163F5F353077
:103AC40010F00C94661D9ECEF8010E94075F2796A5
:103AD40008951A930A931A2F0A81003011F40C9452
:103AE400A51DA6E20A9FF001EB55F64DE081EA938D
:103AF400A091E82F0E94AB161A93A0916F2A0E94FE
:103B04001416A4E8B9E20E94DC601FBEE091852986
:103B1400EF77E09385291A93E0916F2AEA93A091B5
:103B240085290E947C15A4E8B9E20E94DC601FBECE
:103B3400A6E20A9FF001EB55F64DE081EA93A091CD
:103B4400E72F0E94AB16E0918629F0E019810881E5
:103B5400239608951A930A931A2F0A81003011F4B8
:103B64000C94E61DA6E20A9FF001EB55F64DE081A8
:103B7400EA93A091E82F0E94AB161A93A0916F2AA2
:103B84000E941416A4E8B9E20E94DC601FBEE09112
:103B94008529E068E09385291A93E0916F2AEA93D6
:103BA400A09185290E947C15A4E8B9E20E94DC60FA
:103BB4001FBEA6E20A9FF001EB55F64DE081EA93A1
:103BC400A091E72F0E94AB16E0918629F0E01981BD
:103BD4000881239608950E94005F8D013C812D8108
:103BE400A6E22A9FF001EB55F64DE081EA93A091FD
:103BF400E82F0E94AB163A93E1E0EA93F8010E94A1
:103C0400895FAE2F0E947C15A4E8B9E20E94DC60B3
:103C14001FBE3A93E0E0EA93E02FE770AE2F0E94D4
:103C24007C15A4E8B9E20E94DC601FBEEEECFAE069
:103C340060E070E00E948F60E22FFF2766277727FD
:103C44000E948F60E32FFF27662777270E948F60EB
:103C5400F801662777270E945661DF01CB01E0E077
:103C6400F0E068EC72E40E942D620E948F60F8011B
:103C74000E94895F662777270E948F60F801E770AA
:103C8400F070662777270E948F6084E10E942318D2
:103C94006896E0E0E0936233E0936333E1E0E0931D
:103CA40061333A93A2E00E941416A4E8B9E20E9498
:103CB400DC601FBEA0918629A13011F40C94631E10
:103CC40015C0E0916433F0916533A0916233B091F3
:103CD4006333AE17BF0710F40C94711E07C0E09154
:103CE4008529E17011F40C94781EDBCF3A93E2E05D
:103CF400EA93A1E00E947C151FBEA6E22A9FF00170
:103D0400EB55F64DE081EA93A091E72F0E94AB16A4
:103D1400E0918629F0E00E94075F269608950E94AC
:103D2400FE5E9D015E814F8100E010E0A89504EFE6
:103D340011E02017310710F40C94B91EA0915829F2
:103D4400B0915929189711F00C94A91E10C04A93E8
:103D54005A93D8010E94ED1DE0938629A2E3B0E0B6
:103D64000E9491620E949718075E1F4FE2CFA895A8
:103D7400A0915829B0915929189711F00C94CA1E92
:103D8400E0915829F09159290E94055F28960895D9
:103D94004A935A93D9010E94ED1DE0938629F0E0DD
:103DA4000E94055F2896089566970E94FE5E3A2F4A
:103DB4004C8D5D8D00E010E0DA01AC50BF4FEE2772
:103DC400A30FBE1FEC91E03011F00C94591F3A93ED
:103DD400A0E60E94AC1D3A93A6E60E94AC1DEAE15F
:103DE400FBE060E070E00E948F60E32FFF2766270E
:103DF40077270E948F6084E00E9423182896E9E4C4
:103E0400FBE060E070E00E948F60E32FFF276627ED
:103E140077270E948F6084E00E9423182896A0E3ED
:103E24003A9FF001E459F44DE081F0E00E94775F9D
:103E3400BF013A9FF001E359F44DE081F0E0E60F51
:103E4400F71F8F013A93E0E6EA93D8010E94911E8E
:103E5400A0E33A9FF001E259F44DE081F0E00E94C2
:103E6400775FBF013A9FF001E159F44DE081F0E042
:103E7400E60FF71F8F013A93E6E6EA93D8010E9412
:103E8400911E3A93E6E0EA93A1E00E943A261FBE0F
:103E94003A93E7E0EA93A1E00E943A261FBEDA01D2
:103EA400AC50BF4FEE27A30FBE1FE1E0EC93E0E060
:103EB400E887FE013696DE0151968BE00E94DC60B5
:103EC400FE0171968BE01FB6F8940E94055F6E9612
:103ED400089566970E94FE5E3A2F4C8D5D8D00E03A
:103EE40010E0DA01AC50BF4FEE27A30FBE1FEC91D8
:103EF400E03011F00C94C11F3A93A0E60E94AC1D6F
:103F0400E8E7FBE060E070E00E948F60E32FFF27AA
:103F1400662777270E948F6084E00E9423182896E2
:103F2400A0E33A9FF001E459F44DE081F0E00E94EF
:103F3400775FBF013A9FF001E359F44DE081F0E06F
:103F4400E60FF71F8F013A93E0E6EA93D8010E9447
:103F5400911E3A93E6E0EA93A1E00E943A261FBE3E
:103F64003A93E7E0EA93A1E00E943A261FBEDA0101
:103F7400AC50BF4FEE27A30FBE1FE1E0EC93E0E08F
:103F8400E887FE013696DE0151968BE00E94DC60E4
:103F9400FE0171968BE01FB6F8940E94055F6E9641
:103FA400089566970E94FE5E3A2F4C8D5D8D00E069
:103FB40010E0DA01AC50BF4FEE27A30FBE1FEC9107
:103FC400E03011F00C9429203A93A6E60E94AC1D2F
:103FD400EBE9FBE060E070E00E948F60E32FFF27D5
:103FE400662777270E948F6084E00E942318289612
:103FF400A0E33A9FF001E259F44DE081F0E00E9421
:10400400775FBF013A9FF001E159F44DE081F0E0A0
:10401400E60FF71F8F013A93E6E6EA93D8010E9470
:10402400911E3A93E6E0EA93A1E00E943A261FBE6D
:104034003A93E7E0EA93A1E00E943A261FBEDA0130
:10404400AC50BF4FEE27A30FBE1FE1E0EC93E0E0BE
:10405400E887FE013696DE0151968BE00E94DC6013
:10406400FE0171968BE01FB6F8940E94055F6E9670
:10407400089566970E94005F1A2F2A8D3B8DD901FF
:10408400AC50BF4FEE27A10FBE1FEC91E03011F0F2
:104094000C9468201A93A0E60E946B1DD901AC50C1
:1040A400BF4FEE27A10FBE1FE1E0EC93EFEBFBE067
:1040B40060E070E00E948F60E12FFF27662777277A
:1040C4000E948F6084E00E9423182896E0E0EE832B
:1040D400FE013496DE011F968BE00E94DC60FE0137
:1040E4003F968BE01FB6F8940E94075F6C96089584
:1040F40066970E94005F1A2F2A8D3B8DD901AC5020
:10410400BF4FEE27A10FBE1FEC91E03011F00C94CD
:10411400A7201A93A6E60E946B1DD901AC50BF4F8D
:10412400EE27A10FBE1FE1E0EC93EFEEFBE060E0B1
:1041340070E00E948F60E12FFF27662777270E9497
:104144008F6084E00E9423182896E0E0EE83FE014D
:104154003496DE011F968BE00E94DC60FE013F96E0
:104164008BE01FB6F8940E94075F6C9608956697DB
:104174000E94005F1A2F2A8D3B8DD901AC50BF4F8E
:10418400EE27A10FBE1FEC91E03011F40C94FD203A
:10419400EFE1FCE060E070E00E948F60E12FFF2718
:1041A400662777270E948F6084E00E942318289650
:1041B4001A93E0E6EA93A4EFB1E00E94ED1D1A938E
:1041C400E6E6EA93A4EFB1E00E94ED1D1A93E7E05E
:1041D400EA93A1E00E943A261FBE1A93E6E0EA930E
:1041E400A0E00E943A261FBED901AC50BF4FEE2773
:1041F400A10FBE1FEC93E0E0EE83FE013496DE01D6
:104204001F968BE00E94DC60FE013F968BE01FB698
:10421400F8940E94075F6C96089566970E94005F69
:104224001A2F2A8D3B8DA6E21A9FF001EB55F64D0D
:10423400E081EA93A091E82F0E94AB16E0E6EA93AE
:10424400A3E00E941416DE0114960E94DC601FBED7
:10425400AE81A13011F00C943521AD81A63411F05A
:104264000C94352101C002C00E94074BE6E6EA9394
:10427400A3E00E941416DE0114960E94DC601FBEA7
:10428400AE81A13011F00C944D21AD81A63411F012
:104294000C944D2101C002C00E94074BA6E21A9F54
:1042A400F001EB55F64DE081EA93A091E72F0E94CF
:1042B400AB16D901AC50BF4FEE27A10FBE1FEC9136
:1042C400E03011F40C948121EBE5FCE060E070E057
:1042D4000E948F60E12FFF27662777270E948F6057
:1042E400A0E31A9FF001EC59F44DE081FF27662703
:1042F40077270E948F6088E00E9423182C96FE0185
:104304003496DE011F968BE00E94DC60FE013F962E
:104314008BE01FB6F8940E94075F6C96089521976E
:10432400E0E0E8830E94FE5E00E010E020E030E080
:1043340050E040E049E104EF11E0053AE6E01E07F1
:1043440010F00C945724E9E8FCE060E070E00E946F
:104354008F60F801662777270E945661DF01CB0141
:10436400E0E0F0E068EC72E40E942D620E948F604D
:1043740084E00E94BC55289651E0A6E25A9FF001C1
:10438400EF55F64DE081E03011F40C94DD21A0E30B
:104394005A9FF001E85AF44DE081E03011F40C9496
:1043A400DD215A9FF001E55AF44DE081E03011F42B
:1043B4000C94DD2101C03EC2A6E25A9FF001EB55E8
:1043C400F64DE081EA93A091E82F0E94AB16A0E39A
:1043D4005A9FF001EE59F44DE081E03011F40C9451
:1043E400FE215A93A6E25A9FF001EF54F64DE08164
:1043F400EA93D8010E94ED1DA0E35A9FF001ED5904
:10440400F44DE081E03011F40C9413225A93A6E2A7
:104414005A9FF001EE54F64DE081EA93D8010E94D0
:10442400ED1DA6E25A9FF001EB55F64DE081EA93AB
:10443400A091E72F0E94AB16A6E25A9FF001ED551A
:10444400F64DBF015A9FF001ED55F64DE0810E94F3
:10445400A05FDB01EC935A93E6E0EA93A6E25A9F4D
:10446400F001ED55F64DA0810E943A261FBE00349E
:10447400E6E01E0710F40C941B2441E05A93AF812C
:104484000E94D625A4E8B9E20E94DC601FBEA6E221
:104494005A9FF001EA55F64DA0918529A083A0E327
:1044A4005A9FF001E45AF44DBF01A6E25A9FF0016D
:1044B400EA55F64DE081E1700E94A05F0E94A05F82
:1044C400DB01EC93A0E35A9FF001E35AF44DBF01E2
:1044D400A6E25A9FF001EA55F64DE081E2700E948F
:1044E400A05F0E94A05FDB01EC93A0E35A9FF00160
:1044F400EE59F44DE081E03011F40C948B225A9F74
:10450400F001E45AF44DE081E03011F40C948B2274
:1045140001C0BDC0A0E35A9FF001EE59F44DA0E0E4
:10452400A083A0E35A9FF001E05AF44DA1E0A083D8
:10453400F80178969F01E52FE066F0E03197DF01FE
:10454400F9010E94895F0E94B360E52FE066F0E004
:104554003796DF01E22FE7700E94B360A0E35A9F11
:10456400F001E059F44DFF93EF93F90166277727A3
:104574000E945661DF01CB01E0E0F0E068EC72E4F8
:104584000E942D62AF91BF910E946860A6E25A9F7B
:10459400F001EB55F64DE081EA93A091E82F0E94DB
:1045A400AB165A93E0E6EA93D9010E94ED1DA6E208
:1045B4005A9FF001EB55F64DE081EA93A091E72F65
:1045C4000E94AB16A0E35A9FF001E05AF44DE0813B
:1045D400E03011F40C94F8225A9FF001EF59F44D95
:1045E400E081E03011F40C94F82201C01DC0A0E376
:1045F4005A9FF001E55AF44DA0E0A083E52FE06452
:10460400F0E03B96DF01E0E00E94B3605A93E6E0FD
:10461400EA93A0E00E943A261FBE5A93E7E0EA9389
:10462400A1E00E943A261FBEEEEAFCE060E070E0E2
:104634000E948F6080E00E94BC552496E4EBFCE06D
:1046440060E070E00E948F60E52FFF2766277727E0
:104654000E948F60F801662777270E945661DF0168
:10466400CB01E0E0F0E068EC72E40E942D620E946D
:104674008F6088E00E94BC552C96E1E1F7E060E091
:1046840070E00E948F6080E00E94BC552496A0E3F5
:104694005A9FF001ED59F44DE081E03011F40C948F
:1046A4005D235A9FF001E35AF44DE081E03011F4A8
:1046B4000C945D2301C0BDC0A0E35A9FF001ED59E5
:1046C400F44DA0E0A083A0E35A9FF001EF59F44D0C
:1046D400A1E0A083F80178969F01E52FE066F0E061
:1046E4003396DF01F9010E94895F0E94B360E52FD0
:1046F400E066F0E03B96DF01E22FE7700E94B360D2
:10470400A0E35A9FF001EC58F44DFF93EF93F901A5
:10471400662777270E945661DF01CB01E0E0F0E0D5
:1047240068EC72E40E942D62AF91BF910E946860B0
:10473400A6E25A9FF001EB55F64DE081EA93A09171
:10474400E82F0E94AB165A93E6E6EA93D9010E9439
:10475400ED1DA6E25A9FF001EB55F64DE081EA9378
:10476400A091E72F0E94AB16A0E35A9FF001E05AF4
:10477400F44DE081E03011F40C94CA235A9FF00107
:10478400EF59F44DE081E03011F40C94CA2301C0D8
:104794001DC0A0E35A9FF001E55AF44DA0E0A083A8
:1047A400E52FE064F0E03B96DF01E0E00E94B360B7
:1047B4005A93E6E0EA93A0E00E943A261FBE5A9379
:1047C400E7E0EA93A1E00E943A261FBEEEEAFCE08D
:1047D40060E070E00E948F6080E00E94BC552496E7
:1047E400E3EFFCE060E070E00E948F60E52FFF27BC
:1047F400662777270E948F60F801662777270E9433
:104804005661DF01CB01E0E0F0E068EC72E40E9465
:104814002D620E948F6088E00E94BC552C96E1E1D5
:10482400F7E060E070E00E948F6080E00E94BC5579
:10483400249610C0A0E35A9FF001E55AF44DA0E07D
:10484400A083E52FE064F0E03B96DF01E0E00E9406
:10485400B36000C05F5F553010F00C9432248DCDEE
:10486400A4E6B0E00E949162A895E0918B2BE03021
:1048740011F00C945024E091BB2BE03011F00C9417
:104884005024E091EB2BE03011F00C945024E09193
:104894001B2CE03011F00C94502401C001C005C061
:1048A400E42FF0E00E0F1F1F48CDE1E3FDE060E0D0
:1048B40070E00E948F6080E00E94BC55249651E015
:1048C400E7E6FDE060E070E00E948F60E52FFF27DF
:1048D400662777270E948F6084E00E94BC55289643
:1048E400A6E25A9FF001EF55F64DE081E03011F059
:1048F4000C948624E7E7FDE060E070E00E948F609E
:1049040080E00E94BC552496A0E35A9FF001EA5A25
:10491400F44DE081E03011F40C949A24E6E9FDE0D2
:1049240060E070E00E948F6080E00E94BC55249695
:10493400EAEDF5E060E070E00E948F6080E00E94A4
:10494400BC552496EDEBFDE060E070E00E948F60C2
:10495400A0E35A9FF001E059F44DDF010E94636027
:104964000E948F6084E00E94BC552896E6EDFDE02D
:1049740060E070E00E948F60A0E35A9FF001EC5861
:10498400F44DDF010E9463600E948F6084E00E9406
:10499400BC552896E52FF0E0E55BFF4FDF01E0E032
:1049A4000E94B360A0E35A9FF001E55AF44DA0E0E1
:1049B400A083A0E35A9FF001E05AF44DA1E0A08344
:1049C400A0E35A9FF001EF59F44DA1E0A083A0E3C6
:1049D4005A9FF001EE59F44DA0E0A083A0E35A9F42
:1049E400F001ED59F44DA0E0A0835F5F553010F065
:1049F4000C94FD2465CF0E949718A895FCCF0E94C3
:104A0400055F279608950E94005F00E010E030E003
:104A140031E0353010F00C94D125A6E23A9FF00134
:104A2400EC55F64DE081EA93E3E0EA93A7E30E94B4
:104A34007C15A4E8B9E20E94DC601FBEA09186291F
:104A4400A13011F00C945025A6E23A9FF001EF55E5
:104A5400F64DA1E0A083A6E23A9FF001E754F64D9B
:104A6400A0E0A083A6E23A9FF001E754F64DFA9342
:104A7400EA93A0E0B8E20E942C59E5EFFDE060E083
:104A840070E00E948F60E32FFF27662777270E943C
:104A94008F6084E00E94231828962AC0A6E23A9FD9
:104AA400F001EF55F64DA0E0A083A6E23A9FF00195
:104AB400E754F64DA0E0A083A6E23A9FF001E75444
:104AC400F64DFA93EA93A6E0B8E20E942C59E8E185
:104AD400FEE060E070E00E948F60E32FFF2766270E
:104AE40077270E948F6084E00E942318289655C07F
:104AF400A6E23A9FF001EC55F64DE081EA93E2E03C
:104B0400EA93A0E00E947C15A4E8B9E20E94DC606C
:104B14001FBEA6E23A9FF001EC55F64DE081EA9300
:104B2400E1E0EA93A8E00E947C15A4E8B9E20E94BF
:104B3400DC601FBE3A93A0E00E94D625A4E8B9E247
:104B44000E94DC601FBEA6E23A9FF001EA55F64DD2
:104B5400A0918529A083A0E33A9FF001EA5AF44D7D
:104B6400BF01A6E23A9FF001EA55F64DE081E470F8
:104B74000E94A05F0E94A05FDB01EC93A0E33A9F38
:104B8400F001E85AF44DBF013A9FF001EA5AF44D9E
:104B9400E0810E94A05FDB01EC933F5F3ACFF80114
:104BA4000E94075F2496089566970E94005F0A2F6B
:104BB4003A8D10E0E0E0ED83EE83E32FF0E0E130A6
:104BC400A0E0FA0711F00C94E92518E138C0E230AE
:104BD400A0E0FA0711F00C94F12519E130C0E3309C
:104BE400A0E0FA0711F00C94F9251AE128C0E4308A
:104BF400A0E0FA0711F00C9401261BE120C0E5E3C4
:104C0400FEE060E070E00E948F60E32FFF276627DC
:104C140077270E948F6084E00E9423182896FE0163
:104C24003496DE011F968BE00E94DC60FE013F9605
:104C34008BE01FB6F8940E94075F6B9608951A9351
:104C4400A02F0E941416DE0114960E94DC601FBE81
:104C5400FE013496DE011F968BE00E94DC60FE01AB
:104C64003F968BE01FB6F8940E94075F6B960895F9
:104C74006B97E0E0E883E8E1E983E9E1EA83EAE1CC
:104C8400EB83EBE1EC830E94005F1A2F0F8D38A1B8
:104C9400313010F40C945326353010F00C94532614
:104CA40010C0FE013996DE0154968BE00E94DC6050
:104CB400FE0174968BE01FB6F8940E94075FA196DC
:104CC4000895E32FF0E0DE011496AE0FBF1FEC91C0
:104CD400EA93A1E00E941416DE0119960E94DC609A
:104CE4001FBEAB85A13011F00C949E26103011F438
:104CF4000C948426E02FA1E00E94345FAA85EA2B5D
:104D0400EA8708C0E02FA1E00E94345FE095AA85FD
:104D1400EA23EA87E32FF0E0DE011496AE0FBF1F0B
:104D2400EC91EA93E1E0EA93AC850E947C15DE0104
:104D340019960E94DC601FBEAB85A13011F40C945F
:104D4400C926E3E5FEE060E070E00E948F60EF8535
:104D5400FF27662777270E948F60EB89A4E1EA9FEB
:104D6400F001E551F04D662777270E948F60E32F0D
:104D7400F0E0DE015096AE0FBF1FEC91FF276627CF
:104D840077270E948F608CE00E9423186096FE01B2
:104D94003996DE0154968BE00E94DC60FE01749625
:104DA4008BE01FB6F8940E94075FA1960895EFE880
:104DB400F0E3FA93EA93A0E1B8E20E943D59E030AF
:104DC40011F40C94F226EFE8F0E3FA93EA93A8E1E5
:104DD400B8E20E943D59E03011F40C94F22620C050
:104DE400E2EAFEE060E070E00E948F60EFE9FFE23B
:104DF400662777270E948F6084E00E94BC5528961E
:104E0400EEEBFEE060E070E00E948F60EFEAFFE20C
:104E1400662777270E948F6084E00E94BC552896FD
:104E24000895EFE8F0E3FA93EA93ACE1B8E20E9464
:104E34003D59E03011F40C942C27EFE8F0E3FA9399
:104E4400EA93A2E2B8E20E943D59E03011F40C94D6
:104E54002C270CC0E4EEFEE060E070E00E948F605E
:104E640080E00E94BC5524960E94074B0895EFE809
:104E7400F0E3FA93EA93A6E2B8E20E943D59E030E7
:104E840011F40C945227EFE8F0E3FA93EA93AFE2BB
:104E9400B8E20E943D59E03011F40C94522711C03D
:104EA400E5E1FFE060E070E00E948F6080E00E9436
:104EB400BC552496A0E4B0E0ECE30E94B3600E94E9
:104EC400074B0895EF972B97D1508AE491E0002483
:104ED40070E0E8E5F4E060E00E940C5F0E94FE5E92
:104EE40010E0E0914806E0780E94A05F0E94A05F75
:104EF4000E2FE091A806E0740E94A05F0E94A05FBC
:104F04003E2FE091A806E0780E94A05F0E94A05F77
:104F14002E2FE0910806E0780E94A05F0E94A05F17
:104F24005E2FEFE8F0E3FA93EA93A3E3B8E20E947A
:104F34003D59E03011F40C94AC27EFE8F0E3FA9318
:104F4400EA93A8E3B8E20E943D59E03011F40C94CE
:104F5400AC2742C7E1EAF2E3FA93EA93ACE3B8E29E
:104F64000E943D59E03011F40C94C527E1EAF2E3C4
:104F7400FA93EA93A4E4B8E20E943D59E03011F4B4
:104F84000C94C52798C311E0E1E1F7E060E070E01C
:104F94000E948F6080E00E94BC552496E9EDF5E004
:104FA40060E070E00E948F6080E00E94BC5524960F
:104FB400EFE5FFE060E070E00E948F6080E00E9417
:104FC400BC552496E4E6FFE060E070E00E948F6048
:104FD400E12FFF27662777270E948F6084E00E94D5
:104FE400BC552896A6E21A9FF001EF55F64DE081D4
:104FF400E03011F40C944D28EEEAFCE060E070E03F
:105004000E948F6080E00E94BC552496E5E7FFE093
:1050140060E070E00E948F60EFEDF9E26627772789
:105024000E948F6084E00E94BC552896E1E1F7E07D
:1050340060E070E00E948F6080E00E94BC5524967E
:10504400EAEDF5E060E070E00E948F6080E00E948D
:10505400BC5524961A93A0E00E94D625A4E8B9E290
:105064000E94DC601FBEA6E21A9FF001EA55F64DCD
:10507400A0918529A083A0E31A9FF001EC59F44D77
:10508400BF01A6E21A9FF001EA55F64DE081E373F1
:10509400DB01EC9328C0E5EDF6E060E070E00E94EF
:1050A4008F6080E00E94BC552496EFE7FFE060E04B
:1050B40070E00E948F6080E00E94BC552496E1E17C
:1050C400F7E060E070E00E948F6080E00E94BC55D1
:1050D4002496EAEDF5E060E070E00E948F6080E0E5
:1050E4000E94BC552496A0E31A9FF001EA5AF44D9D
:1050F400E081E03011F40C94E82AE1E1F7E060E0AB
:1051040070E00E948F6080E00E94BC552496EDE818
:10511400FFE060E070E00E948F6080E00E94BC5578
:105124002496A0E31A9FF001EC59F44DE081F0E0DD
:10513400E130A0E0FA0711F00C94A12806C0E33096
:10514400A0E0FA0711F00C94A82806C0E132A0E010
:10515400FA0711F00C94AF2806C0E332A0E0FA0776
:1051640011F00C94E828EEE9FFE060E070E00E94A2
:105174008F6080E00E94BC552496E4EAFFE060E082
:1051840070E00E948F6080E00E94BC552496E1E1AB
:10519400F7E060E070E00E948F6080E00E94BC5500
:1051A4002496ECEBFFE060E070E00E948F60A0E3E7
:1051B4001A9FF001E059F44DDF010E9463600E94E0
:1051C4008F6084E00E94BC552896CBC0E131A0E0FA
:1051D400FA0711F00C94EF2806C0E331A0E0FA07B7
:1051E40011F00C942829EEE9FFE060E070E00E94E1
:1051F4008F6080E00E94BC552496E8EDFFE060E0FB
:1052040070E00E948F6080E00E94BC552496E1E12A
:10521400F7E060E070E00E948F6080E00E94BC557F
:105224002496ECEBFFE060E070E00E948F60A0E366
:105234001A9FF001E059F44DDF010E9463600E945F
:105244008F6084E00E94BC5528968BC0309711F083
:105254000C942D2906C0E230A0E0FA0711F00C945A
:10526400342906C0E032A0E0FA0711F00C943B297F
:1052740006C0E232A0E0FA0711F00C947429EBEEB8
:10528400FFE060E070E00E948F6080E00E94BC5507
:105294002496E1EFFFE060E070E00E948F6080E020
:1052A4000E94BC552496E1E1F7E060E070E00E94C2
:1052B4008F6080E00E94BC552496ECEBFFE060E038
:1052C40070E00E948F60A0E31A9FF001E059F44D52
:1052D400DF010E9463600E948F6084E00E94BC55DD
:1052E40028963FC0E031A0E0FA0711F00C947B2926
:1052F40006C0E231A0E0FA0711F00C94B329EBEEFA
:10530400FFE060E070E00E948F6080E00E94BC5586
:105314002496E9E0F0E160E070E00E948F6080E0B4
:105324000E94BC552496E1E1F7E060E070E00E9441
:105334008F6080E00E94BC552496ECEBFFE060E0B7
:1053440070E00E948F60A0E31A9FF001E059F44DD1
:10535400DF010E9463600E948F6084E00E94BC555C
:105364002896E1E1F7E060E070E00E948F6080E061
:105374000E94BC552496EDE1F0E160E070E00E94EB
:105384008F6080E00E94BC552496A0E31A9FF00130
:10539400EC59F44DE081F0E0E230A0E0FA0711F0BE
:1053A4000C94D52906C0E330A0E0FA0711F00C9460
:1053B400DC2906C0E231A0E0FA0711F00C94E329DD
:1053C40006C0E331A0E0FA0711F00C941C2AEEE9C0
:1053D400FFE060E070E00E948F6080E00E94BC55B6
:1053E4002496E4EAFFE060E070E00E948F6080E0D1
:1053F4000E94BC552496E1E1F7E060E070E00E9471
:105404008F6080E00E94BC552496ECEBFFE060E0E6
:1054140070E00E948F60A0E31A9FF001EC58F44DF5
:10542400DF010E9463600E948F6084E00E94BC558B
:105434002896CBC0E232A0E0FA0711F00C94232A9C
:1054440006C0E332A0E0FA0711F00C945C2AEEE9FE
:10545400FFE060E070E00E948F6080E00E94BC5535
:105464002496E8EDFFE060E070E00E948F6080E049
:105474000E94BC552496E1E1F7E060E070E00E94F0
:105484008F6080E00E94BC552496ECEBFFE060E066
:1054940070E00E948F60A0E31A9FF001EC58F44D75
:1054A400DF010E9463600E948F6084E00E94BC550B
:1054B40028968BC0309711F00C94612A06C0E13015
:1054C400A0E0FA0711F00C94682A06C0E031A0E0CD
:1054D400FA0711F00C946F2A06C0E131A0E0FA0734
:1054E40011F00C94A82AEBEEFFE060E070E00E945B
:1054F4008F6080E00E94BC552496E1EFFFE060E0FD
:1055040070E00E948F6080E00E94BC552496E1E127
:10551400F7E060E070E00E948F6080E00E94BC557C
:105524002496ECEBFFE060E070E00E948F60A0E363
:105534001A9FF001EC58F44DDF010E9463600E9451
:105544008F6084E00E94BC5528963FC0E032A0E002
:10555400FA0711F00C94AF2A06C0E132A0E0FA0772
:1055640011F00C94E72AEBEEFFE060E070E00E949B
:105574008F6080E00E94BC552496E9E0F0E160E091
:1055840070E00E948F6080E00E94BC552496E1E1A7
:10559400F7E060E070E00E948F6080E00E94BC55FC
:1055A4002496ECEBFFE060E070E00E948F60A0E3E3
:1055B4001A9FF001EC58F44DDF010E9463600E94D1
:1055C4008F6084E00E94BC5528966EC0E1E1F7E04C
:1055D40060E070E00E948F6080E00E94BC552496D9
:1055E400EDE8FFE060E070E00E948F6080E00E94E0
:1055F400BC552496EBEEFFE060E070E00E948F6003
:1056040080E00E94BC552496EEE2F0E160E070E098
:105614000E948F6080E00E94BC552496E1E1F7E08F
:1056240060E070E00E948F6080E00E94BC55249688
:10563400EAEDF5E060E070E00E948F6080E00E9497
:10564400BC552496EDE1F0E160E070E00E948F60CB
:1056540080E00E94BC552496EBEEFFE060E070E031
:105664000E948F6080E00E94BC552496EEE2F0E137
:1056740060E070E00E948F6080E00E94BC55249638
:10568400E1E1F7E060E070E00E948F6080E00E945A
:10569400BC552496EAEDF5E060E070E00E948F606E
:1056A40080E00E94BC5524961F5F153010F00C94C6
:1056B4005C2B6ACC91C3E1EAF2E3FA93EA93A6E4A1
:1056C400B8E20E943D59E03011F40C94762BE1EAE3
:1056D400F2E3FA93EA93A9E4B8E20E943D59E03078
:1056E40011F40C94762B95C1EAEDF5E060E070E0DE
:1056F4000E948F6080E00E94BC552496E3E4F0E1B0
:1057040060E070E00E948F6080E00E94BC552496A7
:10571400EDE8F0E160E070E00E948F6080E00E94BC
:10572400BC552496E3E4F0E160E070E00E948F60F1
:1057340080E00E94BC552496E1EBF0E160E070E06B
:105744000E948F60E0914806E0740E94A05F0E946E
:10575400A05FFF27662777270E948F60A9E5B0E046
:105764000E94AB60FF27662777270E945661DF01FE
:10577400CB01E0E0F0E060EA71E40E942D620E9457
:105784008F60AAE5B0E00E94AB60FF276627772709
:105794000E945661DF01CB01E0E0F0E060EA71E4D1
:1057A4000E942D620E948F608CE00E94BC5560961E
:1057B400E9EFF0E160E070E00E948F60E02FFF27E6
:1057C400662777270E948F60E32DFF2766277727B8
:1057D4000E948F60E32DAAE0EA9FF001DE01529659
:1057E400EA0FFB1F662777270E948F608CE00E94D8
:1057F400BC556096E9E2F1E160E070E00E948F60E0
:10580400E091A806E2700E94A05F0E94A05FFF27BB
:10581400662777270E948F60E091512FF091522FD5
:10582400662777270E945661DF01CB01E0E0F0E0B4
:1058340068EC72E40E942D620E948F60E0916C29F2
:10584400F0916D29662777270E945661DF01CB010D
:10585400E0E0F0E068EC72E40E942D620E948F6048
:10586400E0912502FF27662777270E948F60E09149
:105874002402FF27662777270E948F6084E10E9415
:10588400BC556896EEE6F1E160E070E00E948F603E
:10589400E32FFF27662777270E948F6084E00E940A
:1058A400BC552896E6E8F1E160E070E00E948F6064
:1058B400E22FFF27662777270E948F6084E00E94EB
:1058C400BC552896EEE9F1E160E070E00E948F603B
:1058D400E52FFF27662777270E948F6084E00E94C8
:1058E400BC552896E6EBF1E160E070E00E948F6021
:1058F400E0915829F0915929662777270E948F60F3
:1059040084E00E94BC552896E0915829F0915929C9
:10591400E03CA0E0FA0711F00C949B2CECECF1E1D4
:1059240060E070E00E948F6080E00E94BC55249685
:1059340065C0E034A0E0FA0711F00C94AC2CEFEF52
:10594400F1E160E070E00E948F6080E00E94BC554D
:10595400249654C0E23CA0E0FA0711F00C94BD2C4C
:10596400ECE2F2E160E070E00E948F6080E00E946F
:10597400BC55249643C0E038A0E0FA0711F00C941B
:10598400CE2CEAE5F2E160E070E00E948F6080E0F6
:105994000E94BC55249632C0309711F00C94DD2C33
:1059A400E5E8F2E160E070E00E948F6080E00E9430
:1059B400BC55249623C0E238A0E0FA0711F00C94F9
:1059C400EE2CE1EBF2E160E070E00E948F6080E099
:1059D4000E94BC55249612C0EEEDF2E160E070E046
:1059E4000E948F60E0915829F09159296627772702
:1059F4000E948F6084E00E94BC552896EAEDF5E091
:105A040060E070E00E948F6080E00E94BC552496A4
:105A1400E3C1E1EAF2E3FA93EA93ABE4B8E20E9469
:105A24003D59E03011F40C94242DE1EAF2E3FA93A9
:105A3400EA93AFE4B8E20E943D59E03011F40C94CB
:105A4400242DA2C1E6EFF2E160E070E00E948F60D5
:105A540080E00E94BC552496ECE1F3E160E070E044
:105A64000E948F6080E00E94BC552496A091920011
:105A7400AC3411F00C94512DEEE2F3E160E070E0EF
:105A84000E948F60E0919300F0E0EF5BFF4F0E9473
:105A9400965F0E948F6084E00E94BC552896A09176
:105AA4009200AD3411F00C946A2DE3E4F3E160E06C
:105AB40070E00E948F60E0919300F0E0EF5BFF4F95
:105AC4000E94965F0E948F6084E00E94BC552896D5
:105AD400EAEDF5E060E070E00E948F6080E00E94F3
